{
  "address": "0x239FB2F176E081b103d9d44Baf52c817e073F254",
  "abi": [
    {
      "inputs": [],
      "stateMutability": "nonpayable",
      "type": "constructor"
    },
    {
      "anonymous": false,
      "inputs": [
        {
          "indexed": false,
          "internalType": "address",
          "name": "user",
          "type": "address"
        },
        {
          "indexed": false,
          "internalType": "address",
          "name": "provider",
          "type": "address"
        },
        {
          "indexed": false,
          "internalType": "uint256",
          "name": "category",
          "type": "uint256"
        }
      ],
      "name": "NewAnalytics",
      "type": "event"
    },
    {
      "inputs": [
        {
          "internalType": "address payable",
          "name": "userAddress",
          "type": "address"
        },
        {
          "internalType": "uint256",
          "name": "category",
          "type": "uint256"
        },
        {
          "internalType": "int64",
          "name": "score",
          "type": "int64"
        }
      ],
      "name": "addAnalytics",
      "outputs": [],
      "stateMutability": "payable",
      "type": "function"
    },
    {
      "inputs": [
        {
          "internalType": "address",
          "name": "userAddress",
          "type": "address"
        }
      ],
      "name": "addUser",
      "outputs": [],
      "stateMutability": "nonpayable",
      "type": "function"
    },
    {
      "inputs": [
        {
          "internalType": "address",
          "name": "",
          "type": "address"
        }
      ],
      "name": "addressToId",
      "outputs": [
        {
          "internalType": "uint256",
          "name": "",
          "type": "uint256"
        }
      ],
      "stateMutability": "view",
      "type": "function"
    },
    {
      "inputs": [
        {
          "internalType": "address",
          "name": "",
          "type": "address"
        }
      ],
      "name": "consumerCredits",
      "outputs": [
        {
          "internalType": "uint256",
          "name": "",
          "type": "uint256"
        }
      ],
      "stateMutability": "view",
      "type": "function"
    },
    {
      "inputs": [],
      "name": "currentStylusRPC",
      "outputs": [
        {
          "internalType": "string",
          "name": "",
          "type": "string"
        }
      ],
      "stateMutability": "view",
      "type": "function"
    },
    {
      "inputs": [],
      "name": "getUserActivityMatrix",
      "outputs": [
        {
          "internalType": "int64[][]",
          "name": "",
          "type": "int64[][]"
        }
      ],
      "stateMutability": "view",
      "type": "function"
    },
    {
      "inputs": [
        {
          "internalType": "uint256",
          "name": "",
          "type": "uint256"
        }
      ],
      "name": "idToAddress",
      "outputs": [
        {
          "internalType": "address",
          "name": "",
          "type": "address"
        }
      ],
      "stateMutability": "view",
      "type": "function"
    },
    {
      "inputs": [],
      "name": "latestIndex",
      "outputs": [
        {
          "internalType": "uint256",
          "name": "",
          "type": "uint256"
        }
      ],
      "stateMutability": "view",
      "type": "function"
    },
    {
      "inputs": [],
      "name": "totalCategories",
      "outputs": [
        {
          "internalType": "uint256",
          "name": "",
          "type": "uint256"
        }
      ],
      "stateMutability": "view",
      "type": "function"
    },
    {
      "inputs": [
        {
          "internalType": "uint256",
          "name": "",
          "type": "uint256"
        },
        {
          "internalType": "uint256",
          "name": "",
          "type": "uint256"
        }
      ],
      "name": "userActivityMatrix",
      "outputs": [
        {
          "internalType": "int64",
          "name": "",
          "type": "int64"
        }
      ],
      "stateMutability": "view",
      "type": "function"
    },
    {
      "stateMutability": "payable",
      "type": "receive"
    }
  ],
  "transactionHash": "0xa9b26874d685ca7b67a5fe9c1a3afe31317968bded8f3cf23957b1112f9020d2",
  "args": [],
  "numDeployments": 14,
  "solcInputHash": "f2438f31f32e80b65f70bbc8dbada31d",
  "bytecode": "0x608060405234801561001057600080fd5b5060008054600181018255908052606080519091610055917f290decd9548b62a8d60345a988386fc84ba6bc95484008f6362f93160ef3e56390910190608090610066565b505060006005908155600655610136565b828054828255906000526020600020906003016004900481019282156101115791602002820160005b838211156100dc57835183826101000a8154816001600160401b03021916908360070b6001600160401b03160217905550926020019260080160208160070104928301926001030261008f565b801561010f5782816101000a8154906001600160401b0302191690556008016020816007010492830192600103026100dc565b505b5061011d929150610121565b5090565b5b8082111561011d5760008155600101610122565b610a57806101456000396000f3fe6080604052600436106100945760003560e01c8063421b2d8b11610059578063421b2d8b14610185578063578f2aa0146101a5578063a9d2e2d7146101bb578063b0f46b3b146101e8578063cb0e0d7d1461020a57600080fd5b8062acd017146100a057806306be2b41146100b55780632a2d0c47146100e05780632a45e1ed1461012e57806339275b0a1461016157600080fd5b3661009b57005b600080fd5b6100b36100ae3660046107d7565b610237565b005b3480156100c157600080fd5b506100ca610446565b6040516100d79190610820565b60405180910390f35b3480156100ec57600080fd5b506101166100fb3660046108ad565b6002602052600090815260409020546001600160a01b031681565b6040516001600160a01b0390911681526020016100d7565b34801561013a57600080fd5b5061014e6101493660046108c6565b610502565b60405160079190910b81526020016100d7565b34801561016d57600080fd5b5061017760065481565b6040519081526020016100d7565b34801561019157600080fd5b506100b36101a03660046108e8565b610554565b3480156101b157600080fd5b5061017760055481565b3480156101c757600080fd5b506101776101d63660046108e8565b60036020526000908152604090205481565b3480156101f457600080fd5b506101fd61065e565b6040516100d7919061090c565b34801561021657600080fd5b506101776102253660046108e8565b60016020526000908152604090205481565b6001600160a01b03831660009081526001602052604081205490036102b05760405163421b2d8b60e01b81526001600160a01b0384166004820152309063421b2d8b90602401600060405180830381600087803b15801561029757600080fd5b505af11580156102ab573d6000803e3d6000fd5b505050505b6001600160a01b03831660009081526001602052604081205481548392919081106102dd576102dd61095a565b9060005260206000200183815481106102f8576102f861095a565b90600052602060002090600491828204019190066008028282829054906101000a900460070b6103289190610986565b92506101000a81548167ffffffffffffffff021916908360070b67ffffffffffffffff1602179055506000836001600160a01b03166108fc60649081150290604051600060405180830381858888f193505050509050806103c75760405162461bcd60e51b81526020600482015260156024820152742330b4b632b2103a37903932bbb0b932103ab9b2b960591b604482015260640160405180910390fd5b336000908152600360205260409020546103e29060016109bb565b336000818152600360209081526040918290209390935580516001600160a01b03881681529283019190915281018490527f3a5918ca939d93e6bd42ac6f2f818c05e35a0fec0af9c4e1fd1f2b32db4e2f0d9060600160405180910390a150505050565b60606000805480602002602001604051908101604052809291908181526020016000905b828210156104f9576000848152602090819020830180546040805182850281018501909152818152928301828280156104e557602002820191906000526020600020906000905b825461010083900a900460070b81526020600f83018190049384019360010360089093019290920291018084116104b15790505b50505050508152602001906001019061046a565b50505050905090565b6000828154811061051257600080fd5b90600052602060002001818154811061052a57600080fd5b9060005260206000209060049182820401919006600802915091509054906101000a900460070b81565b6005546105629060016109bb565b600555600080546001810182559080526060805190916105a9917f290decd9548b62a8d60345a988386fc84ba6bc95484008f6362f93160ef3e563909101906080906106ec565b5060005b60065481101561061c576000600554815481106105cc576105cc61095a565b6000918252602080832091909101805460018101825590835291206004820401805460039092166008026101000a67ffffffffffffffff0219909116905580610614816109ce565b9150506105ad565b50506005546001600160a01b039091166000818152600160209081526040808320859055938252600290529190912080546001600160a01b0319169091179055565b6004805461066b906109e7565b80601f0160208091040260200160405190810160405280929190818152602001828054610697906109e7565b80156106e45780601f106106b9576101008083540402835291602001916106e4565b820191906000526020600020905b8154815290600101906020018083116106c757829003601f168201915b505050505081565b8280548282559060005260206000209060030160049004810192821561079a5791602002820160005b8382111561076457835183826101000a81548167ffffffffffffffff021916908360070b67ffffffffffffffff1602179055509260200192600801602081600701049283019260010302610715565b80156107985782816101000a81549067ffffffffffffffff0219169055600801602081600701049283019260010302610764565b505b506107a69291506107aa565b5090565b5b808211156107a657600081556001016107ab565b6001600160a01b03811681146107d457600080fd5b50565b6000806000606084860312156107ec57600080fd5b83356107f7816107bf565b9250602084013591506040840135600781900b811461081557600080fd5b809150509250925092565b6000602080830181845280855180835260408601915060408160051b87010192508387016000805b8381101561089f57888603603f19018552825180518088529088019088880190845b8181101561088957835160070b8352928a0192918a019160010161086a565b5090975050509386019391860191600101610848565b509398975050505050505050565b6000602082840312156108bf57600080fd5b5035919050565b600080604083850312156108d957600080fd5b50508035926020909101359150565b6000602082840312156108fa57600080fd5b8135610905816107bf565b9392505050565b600060208083528351808285015260005b818110156109395785810183015185820160400152820161091d565b506000604082860101526040601f19601f8301168501019250505092915050565b634e487b7160e01b600052603260045260246000fd5b634e487b7160e01b600052601160045260246000fd5b600781810b9083900b01677fffffffffffffff8113677fffffffffffffff19821217156109b5576109b5610970565b92915050565b808201808211156109b5576109b5610970565b6000600182016109e0576109e0610970565b5060010190565b600181811c908216806109fb57607f821691505b602082108103610a1b57634e487b7160e01b600052602260045260246000fd5b5091905056fea26469706673582212204dfcd442b02216b7fede9efed6dfb30d0c814b42ae122a130741092b5c4a106a64736f6c63430008110033",
  "devdoc": {
    "kind": "dev",
    "methods": {},
    "version": 1
  },
  "userdoc": {
    "kind": "user",
    "methods": {},
    "version": 1
  },
  "storageLayout": {
    "storage": [
      {
        "astId": 5,
        "contract": "contracts/UserAnalytics.sol:UserAnalytics",
        "label": "userActivityMatrix",
        "offset": 0,
        "slot": "0",
        "type": "t_array(t_array(t_int64)dyn_storage)dyn_storage"
      },
      {
        "astId": 9,
        "contract": "contracts/UserAnalytics.sol:UserAnalytics",
        "label": "addressToId",
        "offset": 0,
        "slot": "1",
        "type": "t_mapping(t_address,t_uint256)"
      },
      {
        "astId": 13,
        "contract": "contracts/UserAnalytics.sol:UserAnalytics",
        "label": "idToAddress",
        "offset": 0,
        "slot": "2",
        "type": "t_mapping(t_uint256,t_address)"
      },
      {
        "astId": 17,
        "contract": "contracts/UserAnalytics.sol:UserAnalytics",
        "label": "consumerCredits",
        "offset": 0,
        "slot": "3",
        "type": "t_mapping(t_address,t_uint256)"
      },
      {
        "astId": 19,
        "contract": "contracts/UserAnalytics.sol:UserAnalytics",
        "label": "currentStylusRPC",
        "offset": 0,
        "slot": "4",
        "type": "t_string_storage"
      },
      {
        "astId": 21,
        "contract": "contracts/UserAnalytics.sol:UserAnalytics",
        "label": "latestIndex",
        "offset": 0,
        "slot": "5",
        "type": "t_uint256"
      },
      {
        "astId": 23,
        "contract": "contracts/UserAnalytics.sol:UserAnalytics",
        "label": "totalCategories",
        "offset": 0,
        "slot": "6",
        "type": "t_uint256"
      }
    ],
    "types": {
      "t_address": {
        "encoding": "inplace",
        "label": "address",
        "numberOfBytes": "20"
      },
      "t_array(t_array(t_int64)dyn_storage)dyn_storage": {
        "base": "t_array(t_int64)dyn_storage",
        "encoding": "dynamic_array",
        "label": "int64[][]",
        "numberOfBytes": "32"
      },
      "t_array(t_int64)dyn_storage": {
        "base": "t_int64",
        "encoding": "dynamic_array",
        "label": "int64[]",
        "numberOfBytes": "32"
      },
      "t_int64": {
        "encoding": "inplace",
        "label": "int64",
        "numberOfBytes": "8"
      },
      "t_mapping(t_address,t_uint256)": {
        "encoding": "mapping",
        "key": "t_address",
        "label": "mapping(address => uint256)",
        "numberOfBytes": "32",
        "value": "t_uint256"
      },
      "t_mapping(t_uint256,t_address)": {
        "encoding": "mapping",
        "key": "t_uint256",
        "label": "mapping(uint256 => address)",
        "numberOfBytes": "32",
        "value": "t_address"
      },
      "t_string_storage": {
        "encoding": "bytes",
        "label": "string",
        "numberOfBytes": "32"
      },
      "t_uint256": {
        "encoding": "inplace",
        "label": "uint256",
        "numberOfBytes": "32"
      }
    }
  }
}